:020000040800F2
:10000000002000201D0300086D0300086D03000898
:1000100000000000000000000000000000000000E0
:100020000000000000000000000000006D03000858
:1000300000000000000000006D030008E901000856
:100040006D0300086D0300086D0300086D030008D0
:100050006D0300086D0300086D0300086D030008C0
:100060006D0300086D0300086D0300086D030008B0
:100070006D0300086D0300086D0300086D030008A0
:100080006D0300086D030008000000006D03000808
:100090006D0300086D0300086D0300086D03000880
:1000A0006D0300086D0300086D0300086D03000870
:1000B0006D030008000000006D0300080000000050
:0400C0005FF808F1EC
:1000C400002243088B4274D303098B425FD3030A93
:1000D4008B4244D3030B8B4228D3030C8B420DD3A6
:1000E400FF22090212BA030C8B4202D31212090234
:1000F40065D0030B8B4219D300E0090AC30B8B4272
:1001040001D3CB03C01A5241830B8B4201D38B031F
:10011400C01A5241430B8B4201D34B03C01A5241C4
:10012400030B8B4201D30B03C01A5241C30A8B4207
:1001340001D3CB02C01A5241830A8B4201D38B02F2
:10014400C01A5241430A8B4201D34B02C01A524196
:10015400030A8B4201D30B02C01A5241CDD2C30908
:100164008B4201D3CB01C01A524183098B4201D384
:100174008B01C01A524143098B4201D34B01C01A6F
:10018400524103098B4201D30B01C01A5241C308E7
:100194008B4201D3CB00C01A524183088B4201D356
:1001A4008B00C01A524143088B4201D34B00C01A42
:1001B4005241411A00D20146524110467047FFE7AE
:1001C40001B5002000F00CF802BDC0460029F7D0AC
:1001D40003B5FFF775FF0EBC4243891A1847C046A2
:1001E4007047C046074A1388642B02D0013313803A
:1001F40007E00023138090222021D205938A4B40EC
:1002040093827047040000208021114A08B5536985
:1002140089020B43536180229023D200DB051A60CC
:100224000C4B64211868FFF74BFF0B4B98420ED818
:100234000A4A01385060C020094900060B6A1B02B3
:100244001B0A03430B620023936007331360FEE72A
:100254000010024000000020FFFFFF0010E000E05B
:1002640000ED00E013B501200F24244B1A6802436B
:100274001A605968224A0A405A601968214A0A4099
:100284001A601968204A0A401A6059681F4A1140C6
:100294005960D96AA143D9621C6B1D492140196375
:1002A400596B814359630021996000910191194967
:1002B40010300860596859605968596059680A4093
:1002C400A0215A605A6889030A4380215A601A6837
:1002D40049040A431A601968084A8901FBD50320B6
:1002E40051688143516051680138014351600C22C7
:1002F40059680A40082AFAD113BDC04600100240CA
:100304000CB8FFF8FFFFF6FEFFFFFBFFFFFFC0FF87
:10031400ACFEFFFF002002400D488546002103E0AB
:100324000C4B5B58435004310B480C4B42189A4217
:10033400F6D30B4A02E0002313600432094B9A42BD
:10034400F9D3FFF78FFF00F011F8FFF75DFFFEE729
:1003540000200020D003000800000020040000203A
:100364000400002008000020FEE7000070B50D4ED8
:100374000D4D0024AD1BAD1005D0A300F35801347E
:100384009847A542F9D100F015F8084E084D00240D
:10039400AD1BAD1005D0A300F35801349847A54216
:1003A400F9D170BD00000000000000000000000052
:1003B40000000000F8B5C046F8BC08BC9E46704773
:0C03C400F8B5C046F8BC08BC9E46704767
:0403D000006CDC02DF
:040000050800031DCF
:00000001FF
